{
  "abi": [
    {
      "constant": false,
      "inputs": [
        {
          "internalType": "uint256",
          "name": "size",
          "type": "uint256"
        }
      ],
      "name": "greaterThan10",
      "outputs": [],
      "payable": false,
      "stateMutability": "nonpayable",
      "type": "function"
    }
  ],
  "bytecode": "608060405234801561001057600080fd5b5060d58061001f6000396000f3fe6080604052348015600f57600080fd5b506004361060285760003560e01c8063e6b685e314602d575b600080fd5b604760048036036020811015604157600080fd5b50356049565b005b600a8111609d576040805162461bcd60e51b815260206004820152601d60248201527f53697a65207368616c6c2062652067726561746572207468616e203130000000604482015290519081900360640190fd5b5056fea265627a7a72315820dc009da5de57709f4867b812ef88a504e478f7e62224201e96b3a392b7496fb164736f6c63430005100032",
  "bytecodeSha1": "15215438bc31ac9ef92b999b9bf99841e7a6f1b1",
  "compiler": {
    "evm_version": "istanbul",
    "optimizer": {
      "enabled": true,
      "runs": 200
    },
    "version": "0.5.16+commit.9c3226ce"
  },
  "contractName": "CheckNumber",
  "language": "Solidity",
  "natspec": {
    "methods": {}
  },
  "opcodes": "PUSH1 0x80 PUSH1 0x40 MSTORE CALLVALUE DUP1 ISZERO PUSH1 0xF JUMPI PUSH1 0x0 DUP1 REVERT JUMPDEST POP PUSH1 0x4 CALLDATASIZE LT PUSH1 0x28 JUMPI PUSH1 0x0 CALLDATALOAD PUSH1 0xE0 SHR DUP1 PUSH4 0xE6B685E3 EQ PUSH1 0x2D JUMPI JUMPDEST PUSH1 0x0 DUP1 REVERT JUMPDEST PUSH1 0x47 PUSH1 0x4 DUP1 CALLDATASIZE SUB PUSH1 0x20 DUP2 LT ISZERO PUSH1 0x41 JUMPI PUSH1 0x0 DUP1 REVERT JUMPDEST POP CALLDATALOAD PUSH1 0x49 JUMP JUMPDEST STOP JUMPDEST PUSH1 0xA DUP2 GT PUSH1 0x9D JUMPI PUSH1 0x40 DUP1 MLOAD PUSH3 0x461BCD PUSH1 0xE5 SHL DUP2 MSTORE PUSH1 0x20 PUSH1 0x4 DUP3 ADD MSTORE PUSH1 0x1D PUSH1 0x24 DUP3 ADD MSTORE PUSH32 0x53697A65207368616C6C2062652067726561746572207468616E203130000000 PUSH1 0x44 DUP3 ADD MSTORE SWAP1 MLOAD SWAP1 DUP2 SWAP1 SUB PUSH1 0x64 ADD SWAP1 REVERT JUMPDEST POP JUMP INVALID LOG2 PUSH6 0x627A7A723158 KECCAK256 0xDC STOP SWAP14 0xA5 0xDE JUMPI PUSH17 0x9F4867B812EF88A504E478F7E62224201E SWAP7 0xB3 LOG3 SWAP3 0xB7 0x49 PUSH16 0xB164736F6C6343000510003200000000 ",
  "sha1": "094e8be25b5d513a9c766c37cf3cee84a401f941",
  "source": "pragma solidity >=0.4.22 <0.6.0;\n\ncontract CheckNumber {\n    function greaterThan10(uint size) public {\n        require(size > 10, \"Size shall be greater than 10\");\n    }\n}\n",
  "sourcePath": "contracts/CheckNumber.sol",
  "type": "contract"
}